:020000040000FA
:0200000069286D
:080008008C00030E8D000A08B4
:100010008E000B1915208B18502064000E088A00E2
:100020000D0E83008C0E0C0E0900910F1A28920FF2
:100030001A28930A1D200B110800990B0800332081
:10004000850004088F001B301A07840000083E203A
:1000500086008F0884009A0A05301A0203199A0153
:100060000530990008001A08073982070134023464
:100070000434083410340034003400340F3982075B
:10008000BE343034EC34F8347234DA34DE34B23422
:10009000FE34FA34F6345E348E347C34CE34C634D6
:1000A00001089000110895001208960013089700A7
:1000B0009101920193010330100294000130031C5E
:1000C0009502031C9602031C970218148B100B1642
:1000D000080083166400003085000130860001307E
:1000E00081008312003081000B168B168B17A00144
:1000F000A101A201A301A401A501A601A7019001EC
:100100009101920193010C3099009401950196019F
:1001100097019801181C8A2898010430B40078309F
:10012000B5006830B600C030B7001708B800160830
:10013000B9001508BA001408BB0000213D08031DD2
:100140008A282408A6002508A7002208A40023085E
:10015000A5002008A2002108A3003E08A0003F0837
:10016000A1000030A900A80021082307A900031856
:10017000A80A20082207A80029082507A9000318B3
:10018000A80A28082407A80029082707A900031897
:10019000A80A28082607A8000310A80CA90C031019
:1001A000A80CA90C2808C7002908C80077214A080C
:1001B0009B004B089C004C089D004D089E008A281F
:100200002030C4003B08C3003A08C2003908C100CE
:100210003808C000C30DC20DC10DC00D031815294B
:10022000C40B0A290130C6000800BF01BE01BD0190
:10023000BC01C301C201C101C0012030C500440896
:10024000C5020310B70DB60DB50DB40DC30DC20D2B
:10025000C10DC00DC40B21293808400203193429EF
:1002600003184A29031C62293908410203193C2951
:1002700003184A29031C62293A0842020319442937
:1002800003184A29031C62293B08430203194A291F
:10029000031C62293B08C3020130031CC202031C79
:1002A000C102031CC0023A08C2020130031CC10291
:1002B000031CC0023908C102031CC0033808C00275
:1002C000031463290310BF0DBE0DBD0DBC0DC50881
:1002D00003197529C5030310B70DB60DB50DB40D7F
:1002E000C30DC20DC10DC00D2C29C60108004E3032
:1002F00084007F217F217F217F217F210800103012
:10030000CE00CF010310C80DC70DCF0DF6304F073B
:100310000318CF000318C80ACE0B822984034F08A4
:040320008000080051
:02400E00F23F7F
:00000001FF
