:020000040000FA
:020000006E2868
:080008008C00030E8D000A08B4
:100010008E000B1915208B18502064000E088A00E2
:100020000D0E83008C0E0C0E09001D20910F1B2855
:10003000920F1B28930A0B1108009C0B0800332019
:10004000850004088F001E301D07840000083E2034
:1000500086008F0884009D0A05301D0203199D014A
:100060000C309C0008001D08073982070134023457
:100070000434083410340034003400340F3982075B
:10008000BE343034EC34F8347234DA34DE34B23422
:10009000FE34FA34F6345E348E347C34CE34C634D6
:1000A0000B1E08000108FC3E900011089600120883
:1000B000970013089800910192019301140810020F
:1000C00095000130031C9602031C9702031C980242
:1000D000100894001B148B100B1608008316640084
:1000E000003085000130860001308100831200302D
:1000F00081000B168B168B179101920193010C3026
:100100009C00950196019701980199019A0194012B
:100110009B011B1C89289B015930B4006830B50035
:100120002F30B6000030B7001808B8001708B90023
:100130001608BA001508BB0000213D08031D8928D8
:100140001A083E02031CA728203C031C89283E08ED
:100150009A003F0899003E08C7003F08C800772171
:1001600049089E004A089F004B08A0004C08A100C7
:060170004D08A2008928E1
:100200002030C4003B08C3003A08C2003908C100CE
:100210003808C000C30DC20DC10DC00D031815294B
:10022000C40B0A290130C6000800BF01BE01BD0190
:10023000BC01C301C201C101C0012030C500440896
:10024000C5020310B70DB60DB50DB40DC30DC20D2B
:10025000C10DC00DC40B21293808400203193429EF
:1002600003184A29031C62293908410203193C2951
:1002700003184A29031C62293A0842020319442937
:1002800003184A29031C62293B08430203194A291F
:10029000031C62293B08C3020130031CC202031C79
:1002A000C102031CC0023A08C2020130031CC10291
:1002B000031CC0023908C102031CC0033808C00275
:1002C000031463290310BF0DBE0DBD0DBC0DC50881
:1002D00003197529C5030310B70DB60DB50DB40D7F
:1002E000C30DC20DC10DC00D2C29C60108004E3032
:1002F00084007F217F217F217F217F210800103012
:10030000CE00CF010310C80DC70DCF0DF6304F073B
:100310000318CF000318C80ACE0B822984034F08A4
:040320008000080051
:02400E00F23F7F
:00000001FF
